:100000000C9434000C9449000C9449000C94490061
:100010000C9449000C9449000C9449000C9449003C
:100020000C9449000C9449000C9449000C9449002C
:100030000C9449000C9449000C9449000C9449001C
:100040000C9449000C9449000C9449000C9449000C
:100050000C9449000C9449000C9449000C944900FC
:100060000C9449000C94490011241FBECFEFD8E036
:10007000DEBFCDBF11E0A0E0B1E0E2E4F2E002C0FB
:1000800005900D92AC31B107D9F70E9490000C9405
:100090001F010C940000ECE7F0E080818064808315
:1000A000EAE7F0E0808180688083808187608083D8
:1000B000089590917C00987F892B80937C0080919B
:1000C0007A00806480937A0080917A0086FDFCCF6C
:1000D000809178009091790008951092C50087E68C
:1000E0008093C400E1ECF0E0808188608083E2ECE2
:1000F000F0E080818660808308959091C00095FF34
:10010000FCCF8093C6000895CF93DF93EC018991D3
:10011000882319F00E947D00FACFDF91CF910895D6
:10012000CF93DF93CDB7DEB72A970FB6F894DEBF33
:100130000FBECDBF0E944B000E946D0080E00E9468
:1001400059006C0181E00E9459007C0155985D9A2C
:1001500019B180E091E00E9484004AE0BE016F5F27
:100160007F4FC6010E94EA00CE0101960E948400E2
:1001700086E091E00E9484004AE0BE016F5F7F4FFD
:10018000C7010E94EA00CE0101960E9484008CE023
:1001900091E00E94840012951695177081E08127E6
:1001A0004AE0BE016F5F7F4F817090E00E94EA00DD
:1001B000CE0101960E94840088E191E00E948400B3
:1001C0002FEF89E698E1215080409040E1F700C090
:1001D0000000B4CFBB274A3031F4992322F4BDE2AA
:1001E000909581959F4F0C94F600BB27FB015527F6
:1001F000AA27880F991FAA1FA41710F0A41B839584
:100200005051B9F7A05DAA3308F0A95DA1930097FA
:1002100079F7B111B1931192CB010C940F01DC016C
:10022000FC01672F71917723E1F7329704C07C912D
:100230006D9370836291AE17BF07C8F30895F89469
:02024000FFCFEE
:100242007B2258223A002C2259223A002C22707228
:0C0252006573736564223A007D0A0000A9
:00000001FF
