:100000000C9434000C9449000C9449000C94490061
:100010000C9449000C9449000C9449000C9449003C
:100020000C9449000C9449000C9449000C9449002C
:100030000C9449000C9449000C9449000C9449001C
:100040000C9449000C9449000C9449000C9449000C
:100050000C9449000C9449000C9449000C944900FC
:100060000C9449000C94490011241FBECFEFD8E036
:10007000DEBFCDBF11E0A0E0B1E0E2EBF2E002C0F4
:1000800005900D92AA32B107D9F70E94FF000C9497
:1000900057010C940000ECE7F0E0808180648083DD
:1000A000EAE7F0E0808180688083808187608083D8
:1000B000089590917C00987F892B80937C0080919B
:1000C0007A00806480937A0080917A0086FDFCCF6C
:1000D000809178009091790008951092C50087E68C
:1000E0008093C400E1ECF0E0808188608083E2ECE2
:1000F000F0E080818660808308959091C00095FF34
:10010000FCCF8093C6000895CF93DF93EC018991D3
:10011000882319F00E947D00FACFDF91CF910895D6
:10012000CF92DF92EF92FF920F931F93CF93DF93C3
:10013000CDB7DEB72A970FB6F894DEBF0FBECDBF9E
:100140006C017B018A0180E091E00E9484008BE0D9
:1001500091E00E94840083E191E00E9484004AE0E3
:10016000BE016F5F7F4FC6010E942201CE01019642
:100170000E94840089E191E00E9484008BE191E07B
:100180000E9484004AE0BE016F5F7F4FC7010E945A
:100190002201CE0101960E94840089E191E00E9433
:1001A000840081E291E00E9484004AE0BE016F5F1A
:1001B0007F4FC8010E942201CE0101960E94840057
:1001C00089E191E00E94840089E191E00E9484002D
:1001D00089E191E00E94840088E291E00E9484001D
:1001E0002A960FB6F894DEBF0FBECDBFDF91CF9138
:1001F0001F910F91FF90EF90DF90CF9008950E9494
:100200004B000E946D0082E00E945900EC0181E0E9
:100210000E94590055985D9A49B14295469547709C
:1002200021E04227417050E0BC01CE010E949000C5
:100230002FEF89E698E1215080409040E1F700C01F
:100240000000E1CFBB274A3031F4992322F4BDE20C
:10025000909581959F4F0C942E01BB27FB0155274C
:10026000AA27880F991FAA1FA41710F0A41B839513
:100270005051B9F7A05DAA3308F0A95DA19300978A
:1002800079F7B111B1931192CB010C944701DC01C4
:10029000FC01672F71917723E1F7329704C07C91BD
:1002A0006D9370836291AE17BF07C8F30895F894F9
:0202B000FFCF7E
:1002B2007B22696E707574223A7B00226A73312246
:1002C2003A7B007B2258223A007D007B2259223A57
:0A02D200007B225357223A000A0075
:00000001FF
