:100000000C9434000C9449000C9449000C94490061
:100010000C9449000C9449000C9449000C9449003C
:100020000C9449000C9449000C9449000C9449002C
:100030000C9449000C9449000C9449000C9449001C
:100040000C9449000C9449000C9449000C9449000C
:100050000C9449000C9449000C9449000C944900FC
:100060000C9449000C94490011241FBECFEFD8E036
:10007000DEBFCDBF11E0A0E0B1E0EEE9F3E002C0E9
:1000800005900D92A437B107D9F70E945A010C943C
:10009000CD010C940000ECE7F0E080818064808367
:1000A000EAE7F0E0808180688083808187608083D8
:1000B000089590917C00987F892B80937C0080919B
:1000C0007A00806480937A0080917A0086FDFCCF6C
:1000D000809178009091790008952298219A08954E
:1000E0001092C50087E68093C400E1ECF0E08081C7
:1000F00088608083E2ECF0E08081866080830895F0
:100100009091C00095FFFCCF8093C6000895CF93D7
:10011000DF93EC018991882319F00E948000FACFC7
:10012000DF91CF91089529988AE08A95F1F700C070
:10013000299A85E38A95F1F70000299810928500A5
:100140001092840080E395E71A9909C00197E1F7BE
:1001500080E091E00E9487008FE097E2089520E31D
:1001600035E71A9B14C02150310919F487E191E059
:10017000F1CF809184009091850001969093850045
:100180008093840085E08A95F1F70000EACF8DE244
:1001900091E00E94870080918400909185006AE33D
:1001A00070E00E948401CB010895CF92DF92EF921C
:1001B000FF920F931F93CF93DF93CDB7DEB72A97AC
:1001C0000FB6F894DEBF0FBECDBF6C017B01042FCC
:1001D000122F86E391E00E94870081E491E00E9463
:1001E000870089E491E00E9487004AE0BE016F5FCA
:1001F0007F4FC6010E949801CE0101960E948700A0
:100200008AE591E00E9487008EE491E00E948700D9
:100210004AE0BE016F5F7F4FC7010E949801CE0187
:1002200001960E9487008AE591E00E94870083E59D
:1002300091E00E9487004AE0BE016F5F7F4F802FF0
:1002400090E00E949801CE0101960E94870089E506
:1002500091E00E9487008CE591E00E94870088E68B
:1002600091E00E9487004AE0BE016F5F7F4F812FBF
:1002700090E00E949801CE0101960E9487008FE6CF
:1002800091E00E9487008EE691E00E94870081E75E
:1002900091E00E9487002A960FB6F894DEBF0FBE49
:1002A000CDBFDF91CF911F910F91FF90EF90DF9025
:1002B000CF9008950E944B000E946D000E94700034
:1002C00082E00E945900EC0181E00E945900BC01CB
:1002D00055985D9A56985E9A49B129B191E026FBEE
:1002E000222720F9292745FB442740F94927CE0139
:1002F0000E94D5002FEF89E698E121508040904080
:10030000E1F700C00000DCCFAA1BBB1B51E107C016
:10031000AA1FBB1FA617B70710F0A61BB70B881F95
:10032000991F5A95A9F780959095BC01CD01089524
:10033000BB274A3031F4992322F4BDE29095819590
:100340009F4F0C94A401BB27FB015527AA27880FB8
:10035000991FAA1FA41710F0A41B83955051B9F739
:10036000A05DAA3308F0A95DA193009779F7B111B8
:10037000B1931192CB010C94BD01DC01FC01672FFC
:1003800071917723E1F7329704C07C916D9370836C
:0E0390006291AE17BF07C8F30895F894FFCF2F
:10039E004E6F204543484F20446574656374656411
:1003AE002E2E2E202A2A004543484F207374756343
:1003BE006B20484947482E2E2E202A2A006F75742E
:1003CE00206C6F6F70007B22696E707574223A7BA1
:1003DE0000226A7331223A7B002258223A002259B7
:1003EE00223A00225357223A007D2C002262757465
:1003FE00746F6E73223A7B00226231223A007D7D49
:04040E00000A0000E0
:00000001FF
