:100000000C9434000C9449000C9449000C94490061
:100010000C9449000C9449000C9449000C9449003C
:100020000C9449000C9449000C9449000C9449002C
:100030000C9449000C9449000C9449000C9449001C
:100040000C9449000C9449000C9449000C9449000C
:100050000C9449000C9449000C9449000C944900FC
:100060000C9449000C94490011241FBECFEFD8E036
:10007000DEBFCDBF11E0A0E0B1E0E6EFF2E002C0EC
:1000800005900D92AE33B107D9F70E9417010C9479
:1000900079010C940000ECE7F0E0808180648083BB
:1000A000EAE7F0E0808180688083808187608083D8
:1000B000089590917C00987F892B80937C0080919B
:1000C0007A00806480937A0080917A0086FDFCCF6C
:1000D000809178009091790008951092C50087E68C
:1000E0008093C400E1ECF0E0808188608083E2ECE2
:1000F000F0E080818660808308959091C00095FF34
:10010000FCCF8093C6000895CF93DF93EC018991D3
:10011000882319F00E947D00FACFDF91CF910895D6
:10012000AF92BF92CF92DF92EF92FF920F931F9305
:10013000CF93DF93CDB7DEB72A970FB6F894DEBF23
:100140000FBECDBF5C016B017A01890180E091E0B7
:100150000E9484008BE091E00E94840083E191E0A2
:100160000E9484004AE0BE016F5F7F4FC5010E947C
:100170004401CE0101960E94840084E291E00E9435
:10018000840088E191E00E9484004AE0BE016F5F34
:100190007F4FC6010E944401CE0101960E94840057
:1001A00084E291E00E9484008DE191E00E9484004D
:1001B0004AE0BE016F5F7F4FC7010E944401CE013C
:1001C00001960E94840083E291E00E94840086E20E
:1001D00091E00E94840082E391E00E9484004AE062
:1001E000BE016F5F7F4FC8010E944401CE0101969E
:1001F0000E94840089E391E00E94840088E391E0FA
:100200000E9484008BE391E00E9484002A960FB63E
:10021000F894DEBF0FBECDBFDF91CF911F910F913C
:10022000FF90EF90DF90CF90BF90AF9008950E9425
:100230004B000E946D0082E00E945900EC0181E0B9
:100240000E945900BC0155985D9A56985E9A49B132
:1002500029B1229526952695237091E029272170B2
:100260004295469547704927417030E050E0CE01F5
:100270000E9490002FEF89E698E121508040904045
:10028000E1F700C00000D7CFBB274A3031F49923F3
:1002900022F4BDE2909581959F4F0C945001BB27AD
:1002A000FB015527AA27880F991FAA1FA41710F032
:1002B000A41B83955051B9F7A05DAA3308F0A95D3E
:1002C000A193009779F7B111B1931192CB010C94DE
:1002D0006901DC01FC01672F71917723E1F7329707
:1002E00004C07C916D9370836291AE17BF07C8F311
:0602F0000895F894FFCF11
:1002F6007B22696E707574223A7B00226A73312202
:100306003A7B002258223A002259223A00225357B9
:10031600223A007D2C0022627574746F6E73223A45
:0E0326007B00226231223A007D7D000A000039
:00000001FF
