:100000000C9434000C9449000C9449000C94490061
:100010000C9449000C9449000C9449000C9449003C
:100020000C9449000C9449000C9449000C9449002C
:100030000C9449000C9449000C9449000C9449001C
:100040000C9449000C9449000C9449000C9449000C
:100050000C9449000C9449000C9449000C944900FC
:100060000C9449000C94490011241FBECFEFD8E036
:10007000DEBFCDBF11E0A0E0B1E0E6ECF3E002C0EE
:1000800005900D92A035B107D9F70E946A010C9432
:10009000E1010C940000ECE7F0E080818064808353
:1000A000EAE7F0E0808180688083808187608083D8
:1000B000089590917C00987F892B80937C0080919B
:1000C0007A00806480937A0080917A0086FDFCCF6C
:1000D000809178009091790008952298219A08954E
:1000E00029988AE08A95F1F700C0299A85E38A95D4
:1000F000F1F700002998109285001092840080E3A7
:1001000095E71A9905C00197E1F78FE097E2089506
:1001100020E335E71A9B11C021503109B1F38091DA
:1001200084009091850001969093850080938400CF
:1001300085E08A95F1F70000EDCF809184009091E1
:1001400085006AE370E00E949801CB010895109247
:10015000C50087E68093C400E1ECF0E08081886010
:100160008083E2ECF0E08081866080830895909146
:10017000C00095FFFCCF8093C6000895CF93DF9316
:10018000EC018991882319F00E94B700FACFDF9122
:10019000CF910895AF92BF92CF92DF92EF92FF92EC
:1001A0000F931F93CF93DF93CDB7DEB72A970FB688
:1001B000F894DEBF0FBECDBF5C016B01E42EF22EC2
:1001C00080E091E00E94BE008BE091E00E94BE00C2
:1001D00083E191E00E94BE004AE0BE016F5F7F4F65
:1001E000C5010E94AC01CE0101960E94BE0084E2CE
:1001F00091E00E94BE0088E191E00E94BE004AE0CA
:10020000BE016F5F7F4FC6010E94AC01CE01019617
:100210000E94BE0084E291E00E94BE008DE191E068
:100220000E94BE004AE0BE016F5F7F4F8E2D90E0BE
:100230000E94AC01CE0101960E94BE0083E291E0D3
:100240000E94BE0086E291E00E94BE0082E391E03F
:100250000E94BE004AE0BE016F5F7F4F8F2D90E08D
:100260000E94AC01CE0101960E94BE008BE491E099
:100270000E94BE0083E291E00E94BE0088E391E00C
:100280000E94BE0084E491E00E94BE004AE0BE01EC
:100290006F5F7F4FC8010E94AC01CE0101960E94A2
:1002A000BE008AE491E00E94BE008DE491E00E94CD
:1002B000BE002A960FB6F894DEBF0FBECDBFDF9109
:1002C000CF911F910F91FF90EF90DF90CF90BF9053
:1002D000AF9008950E944B000E946D000E94A700FD
:1002E00082E00E945900EC0181E00E9459007C01EB
:1002F0000E9470008C0155985D9A56985E9A49B19B
:1003000029B191E026FB222720F9292745FB442724
:1003100040F94927B701CE010E94CA002FEF89E6B4
:1003200098E1215080409040E1F700C00000D8CF14
:10033000AA1BBB1B51E107C0AA1FBB1FA617B7070B
:1003400010F0A61BB70B881F991F5A95A9F7809527
:100350009095BC01CD010895BB274A3031F4992313
:1003600022F4BDE2909581959F4F0C94B801BB2774
:10037000FB015527AA27880F991FAA1FA41710F061
:10038000A41B83955051B9F7A05DAA3308F0A95D6D
:10039000A193009779F7B111B1931192CB010C940D
:1003A000D101DC01FC01672F71917723E1F73297CE
:1003B00004C07C916D9370836291AE17BF07C8F340
:0603C0000895F894FFCF40
:1003C6007B22696E707574223A7B00226A73312231
:1003D6003A7B002258223A002259223A00225357E9
:1003E600223A007D2C0022627574746F6E73223A75
:1003F6007B00226231223A00226F75747075747325
:10040600223A7B00227531223A007D7D000A0000E7
:00000001FF
