:100000000C9434000C948B000C9451000C9451000F
:100010000C9451000C9451000C9451000C9451001C
:100020000C9451000C9451000C9451000C9451000C
:100030000C9451000C9451000C9451000C945100FC
:100040000C9451000C9451000C9451000C945100EC
:100050000C9451000C9451000C9451000C945100DC
:100060000C9451000C94510011241FBECFEFD8E026
:10007000DEBFCDBF11E0A0E0B1E0E8ECF4E002C0EB
:1000800005900D92A036B107D9F721E0A0E6B1E0C6
:1000900001C01D92A236B207E1F70E94E0010C9464
:1000A00062020C940000ECE7F0E0808180648083C1
:1000B000EAE7F0E0808180688083808187608083C8
:1000C000089590917C00987F892B80937C0080918B
:1000D0007A00806480937A0080917A0086FDFCCF5C
:1000E000809178009091790008952298219A08953E
:1000F0008AB1837E8AB985E38A95F1F70000E9E643
:10010000F0E080818F60808385E38A95F1F70000BD
:10011000E89A789408951F920F920FB60F921124C7
:100120008F939F9387EC90E00197F1F700C0000058
:100130004A9B0BC04B9B10C0809160019091610164
:10014000019690936101809360019F918F910F9030
:100150000FBE0F901F9018958091600190916101E2
:100160000197EFCF29988AE08A95F1F700C0299A84
:1001700085E38A95F1F70000299810928500109286
:10018000840080E395E71A9905C00197E1F78FE0B5
:1001900097E2089520E335E71A9B11C021503109F9
:1001A000B1F3809184009091850001969093850031
:1001B0008093840085E08A95F1F70000EDCF80916F
:1001C0008400909185006AE370E00E941902CB01DF
:1001D00008951092C50087E68093C400E1ECF0E03A
:1001E000808188608083E2ECF0E08081866080839B
:1001F00008959091C00095FFFCCF8093C6000895AC
:10020000CF93DF93EC018991882319F00E94F900C4
:10021000FACFDF91CF9108957F928F929F92AF9204
:10022000BF92CF92DF92EF92FF920F931F93CF93E3
:10023000DF93CDB7DEB72C970FB6F894DEBF0FBEB5
:10024000CDBF4C015B01742ED22EFC86EB8680E084
:1002500091E00E9400018BE091E00E94000183E1A7
:1002600091E00E9400014AE0BE016F5F7F4FC40130
:100270000E942D02CE0101960E94000184E291E0CD
:100280000E94000188E191E00E9400014AE0BE0165
:100290006F5F7F4FC5010E942D02CE0101960E9423
:1002A000000184E291E00E9400018DE191E00E9452
:1002B00000014AE0BE016F5F7F4F872D90E00E94F2
:1002C0002D02CE0101960E94000183E291E00E947E
:1002D000000186E291E00E94000182E391E00E9429
:1002E00000014AE0BE016F5F7F4F8D2D90E00E94BC
:1002F0002D02CE0101960E94000183E291E00E944E
:10030000000188E391E00E94000182E491E00E94F4
:1003100000018B859C854AE0BE016F5F7F4F0E9484
:100320002D02CE0101960E94000184E291E00E941C
:1003300000018DE191E00E9400014AE0BE016F5F83
:100340007F4F8C2D90E00E942D02CE0101960E94DD
:1003500000018BE591E00E94000183E291E00E94A0
:10036000000188E491E00E94000184E591E00E9490
:1003700000014AE0BE016F5F7F4FC8010E942D025D
:10038000CE0101960E9400018AE591E00E940001E1
:100390008DE591E00E9400012C960FB6F894DEBF27
:1003A0000FBECDBFDF91CF911F910F91FF90EF90C6
:1003B000DF90CF90BF90AF909F908F907F900895E7
:1003C0000E9453000E9475000E94E9000E9478007C
:1003D00082E00E946100EC0181E00E9461005C010A
:1003E0000E94B20053985B9A55985D9A49B129B121
:1003F000C9B0E0906001F090610131E0C4FACC2412
:10040000C0F8C32625FB222720F9232743FB4427D6
:1004100040F943278C01B501CE010E940C012FEF5A
:1004200089E698E1215080409040E1F700C000004B
:10043000CFCFAA1BBB1B51E107C0AA1FBB1FA6172A
:10044000B70710F0A61BB70B881F991F5A95A9F77D
:1004500080959095BC01CD010895BB274A3031F4B9
:10046000992322F4BDE2909581959F4F0C94390217
:10047000BB27FB015527AA27880F991FAA1FA4177E
:1004800010F0A41B83955051B9F7A05DAA3308F072
:10049000A95DA193009779F7B111B1931192CB01A6
:1004A0000C945202DC01FC01672F71917723E1F774
:1004B000329704C07C916D9370836291AE17BF0731
:0804C000C8F30895F894FFCF82
:1004C8007B22696E707574223A7B00226A7331222E
:1004D8003A7B002258223A002259223A00225357E6
:1004E800223A007D2C0022627574746F6E73223A72
:1004F8007B00226231223A00226469616C73223ADD
:100508007B00226431223A00226F7574707574730F
:10051800223A7B00227531223A007D7D000A0000D4
:00000001FF
