:100000000C9434000C943E000C943E000C943E0082
:100010000C943E000C943E000C943E000C943E0068
:100020000C943E000C943E000C943E000C943E0058
:100030000C943E000C943E000C943E000C943E0048
:100040000C943E000C943E000C943E000C943E0038
:100050000C943E000C943E000C943E000C943E0028
:100060000C943E000C943E0011241FBECFEFD8E04C
:10007000DEBFCDBF0E944D000C9464000C940000C4
:10008000559A84B5806284BD84B5836084BD85B58E
:10009000826085BD089588BD08950E94400080E07B
:1000A00088BDEFE3FCE93197F1F700C000008F5FF6
:1000B0008F3FB1F788BDEFE3FCE93197F1F700C05E
:0C00C00000008150B9F7EBCFF894FFCF9F
:00000001FF
