:100000000C9434000C9466000C9449000C94490044
:100010000C9449000C9449000C9449000C9449003C
:100020000C9449000C9449000C9449000C9449002C
:100030000C9449000C9449000C9449000C9449001C
:100040000C9449000C9449000C9449000C9449000C
:100050000C9449000C9449000C9449000C944900FC
:100060000C9449000C94490011241FBECFEFD8E036
:10007000DEBFCDBF11E0A0E0B1E0E2E4F1E002C0FC
:1000800005900D92A230B107D9F70E9495000C940B
:100090009F000C940000559A84B5836084BD85B59B
:1000A000836085BD84B5806284BD08958AB1837EF6
:1000B0008AB98BB18C618BB9E9E6F0E0808185600B
:1000C00080838DB383608DBB789408951F920F92C7
:1000D0000FB60F9211248F939F934B9B17C0809163
:1000E0000001909101018F3F91054CF48091000136
:1000F00090910101059690930101809300019F91D9
:100100008F910F900FBE0F901F9018958091000156
:10011000909101011816190694F7809100019091B1
:1001200001010597E8CF88BD08950E944B000E9409
:100130005600809100019091010188BDFACFF8949A
:02014000FFCFEF
:0201420080003B
:00000001FF
