:100000000C9434000C9449000C9449000C94490061
:100010000C9449000C9449000C9449000C9449003C
:100020000C9449000C9449000C9449000C9449002C
:100030000C9449000C9449000C9449000C9449001C
:100040000C9449000C9449000C9449000C9449000C
:100050000C9449000C9449000C9449000C944900FC
:100060000C9449000C94490011241FBECFEFD8E036
:10007000DEBFCDBF11E0A0E0B1E0EAE4F1E002C0F4
:1000800005900D92AE30B107D9F70E946E000C9426
:10009000A3000C9400001092C50087E68093C40072
:1000A000E1ECF0E0808180618083E2ECF0E080812F
:1000B0008560808308958091C00087FFFCCF809188
:1000C000C6000895FC019191992339F08091C000F8
:1000D00085FFFCCF9093C600F6CF0895CF93DF93B2
:1000E000CDB7DEB7C054D1090FB6F894DEBF0FBE4E
:1000F000CDBF0E944B0010E00E945B00212F30E03A
:100100008A30A9F441E050E04C0F5D1F240F351FE9
:10011000F901108280E091E00E946200CE01019618
:100120000E9462008BE091E00E946200E4CF1F5FBA
:1001300041E050E04C0F5D1F240F351FF901808313
:0A0140001F33C8F6D9CFF894FFCFA3
:0E014A0052656365697665643A20000A00001C
:00000001FF
