:100000000C9434000C9449000C9449000C94490061
:100010000C9449000C9449000C9449000C9449003C
:100020000C9449000C9449000C9449000C9449002C
:100030000C9449000C9449000C9449000C9449001C
:100040000C9449000C9449000C9449000C9449000C
:100050000C9449000C9449000C9449000C944900FC
:100060000C9449000C94490011241FBECFEFD8E036
:10007000DEBFCDBF11E0A0E0B1E0E2E1F2E002C0FE
:1000800005900D92A031B107D9F70E9490000C9411
:1000900007010C940000ECE7F0E08081806480832D
:1000A000EAE7F0E0808180688083808187608083D8
:1000B000089590917C00987F892B80937C0080919B
:1000C0007A00806480937A0080917A0086FDFCCF6C
:1000D000809178009091790008951092C50087E68C
:1000E0008093C400E1ECF0E0808188608083E2ECE2
:1000F000F0E080818660808308959091C00095FF34
:10010000FCCF8093C6000895CF93DF93EC018991D3
:10011000882319F00E947D00FACFDF91CF910895D6
:10012000CF93DF93CDB7DEB72A970FB6F894DEBF33
:100130000FBECDBF0E944B000E946D0080E00E9468
:1001400059007C0181E00E9459008C0180E091E01F
:100150000E9484004AE0BE016F5F7F4FC7010E948A
:10016000D200CE0101960E94840086E091E00E94B8
:1001700084004AE0BE016F5F7F4FC8010E94D20039
:10018000CE0101960E9484008CE091E00E948400E0
:100190002FEF89E698E1215080409040E1F700C0C0
:1001A0000000CCCFBB274A3031F4992322F4BDE2C2
:1001B000909581959F4F0C94DE00BB27FB0155273E
:1001C000AA27880F991FAA1FA41710F0A41B8395B4
:1001D0005051B9F7A05DAA3308F0A95DA19300972B
:1001E00079F7B111B1931192CB010C94F700DC01B6
:1001F000FC01672F71917723E1F7329704C07C915E
:100200006D9370836291AE17BF07C8F30895F89499
:02021000FFCF1E
:100212007B2258223A002C2259223A007D0A000001
:00000001FF
