:100000000C9434000C9449000C9449000C94490061
:100010000C9449000C9449000C9449000C9449003C
:100020000C9449000C9449000C9449000C9449002C
:100030000C9449000C9449000C9449000C9449001C
:100040000C9449000C9449000C9449000C9449000C
:100050000C9449000C9449000C9449000C944900FC
:100060000C9449000C94490011241FBECFEFD8E036
:10007000DEBFCDBF11E0A0E0B1E0E4EDF3E002C0EF
:1000800005900D92AC37B107D9F70E9471010C941D
:10009000E8010C940000ECE7F0E08081806480834C
:1000A000EAE7F0E0808180688083808187608083D8
:1000B000089590917C00987F892B80937C0080919B
:1000C0007A00806480937A0080917A0086FDFCCF6C
:1000D000809178009091790008952298219A08954E
:1000E0001092C50087E68093C400E1ECF0E08081C7
:1000F00088608083E2ECF0E08081866080830895F0
:100100009091C00095FFFCCF8093C6000895CF93D7
:10011000DF93EC018991882319F00E948000FACFC7
:10012000DF91CF91089529988AE08A95F1F700C070
:10013000299A85E38A95F1F70000299810928500A5
:100140001092840080E395E71A9909C00197E1F7BE
:1001500080E091E00E9487008FE097E2089520E31D
:1001600035E71A9B14C02150310919F487E191E059
:10017000F1CF809184009091850001969093850045
:100180008093840085E08A95F1F70000EACF8091A2
:100190008400909185006AE370E00E949F01CB018A
:1001A0000895AF92BF92CF92DF92EF92FF920F939A
:1001B0001F93CF93DF93CDB7DEB72A970FB6F8948E
:1001C000DEBF0FBECDBF5C016B01E42EF22E8DE2CF
:1001D00091E00E94870088E391E00E94870080E41C
:1001E00091E00E9487004AE0BE016F5F7F4FC5012A
:1001F0000E94B301CE0101960E94870081E591E043
:100200000E94870085E491E00E9487004AE0BE01D9
:100210006F5F7F4FC6010E94B301CE0101960E941D
:10022000870081E591E00E9487008AE491E00E94C6
:1002300087004AE0BE016F5F7F4F8E2D90E00E94E5
:10024000B301CE0101960E94870080E591E00E94F3
:10025000870083E591E00E9487008FE591E00E948E
:1002600087004AE0BE016F5F7F4F8F2D90E00E94B4
:10027000B301CE0101960E94870088E791E00E94B9
:10028000870080E591E00E94870085E691E00E946A
:10029000870081E791E00E9487004AE0BE016F5F1E
:1002A0007F4FC8010E94B301CE0101960E948700D2
:1002B00087E791E00E9487008AE791E00E9487002B
:1002C0002A960FB6F894DEBF0FBECDBFDF91CF9157
:1002D0001F910F91FF90EF90DF90CF90BF90AF9064
:1002E00008950E944B000E946D000E94700082E001
:1002F0000E945900EC0181E00E9459007C010E949B
:1003000093008C0155985D9A56985E9A49B129B12F
:1003100091E026FB222720F9292745FB442740F9B5
:100320004927B701CE010E94D1002FEF89E698E15D
:10033000215080409040E1F700C00000D8CFAA1BB8
:10034000BB1B51E107C0AA1FBB1FA617B70710F0C0
:10035000A61BB70B881F991F5A95A9F780959095F2
:10036000BC01CD010895BB274A3031F4992322F412
:10037000BDE2909581959F4F0C94BF01BB27FB0177
:100380005527AA27880F991FAA1FA41710F0A41B8E
:1003900083955051B9F7A05DAA3308F0A95DA193E8
:1003A000009779F7B111B1931192CB010C94D80158
:1003B000DC01FC01672F71917723E1F7329704C0CC
:1003C0007C916D9370836291AE17BF07C8F3089557
:0403D000F894FFCFCF
:1003D4004E6F204543484F204465746563746564DB
:1003E4002E2E2E202A2A004543484F20737475630D
:1003F4006B20484947482E2E2E202A2A007B22694A
:100404006E707574223A7B00226A7331223A7B0043
:100414002258223A002259223A00225357223A0003
:100424007D2C0022627574746F6E73223A7B0022F5
:100434006231223A00226F757470757473223A7BAC
:0C04440000227531223A007D7D000A0084
:00000001FF
